{
  "contractName": "SmellCheckmate",
  "abi": [
    {
      "inputs": [
        {
          "internalType": "address",
          "name": "_user",
          "type": "address"
        },
        {
          "internalType": "uint256",
          "name": "_rating",
          "type": "uint256"
        }
      ],
      "name": "submitRating",
      "outputs": [],
      "stateMutability": "nonpayable",
      "type": "function"
    },
    {
      "inputs": [
        {
          "internalType": "address",
          "name": "_user",
          "type": "address"
        }
      ],
      "name": "getRating",
      "outputs": [
        {
          "internalType": "uint256",
          "name": "",
          "type": "uint256"
        }
      ],
      "stateMutability": "view",
      "type": "function"
    }
  ],
  "bytecode": "0x608060405234801561001057600080fd5b506101b5806100206000396000f3fe608060405234801561001057600080fd5b50600436106100365760003560e01c806380fc9c0e1461003b578063f8d550e614610064575b600080fd5b61004e6100493660046100f5565b610079565b60405161005b9190610176565b60405180910390f35b610077610072366004610116565b610098565b005b6001600160a01b0381166000908152602081905260409020545b919050565b60058111156100c25760405162461bcd60e51b81526004016100b99061013f565b60405180910390fd5b6001600160a01b03909116600090815260208190526040902055565b80356001600160a01b038116811461009357600080fd5b600060208284031215610106578081fd5b61010f826100de565b9392505050565b60008060408385031215610128578081fd5b610131836100de565b946020939093013593505050565b6020808252601e908201527f526174696e67206d757374206265206265747765656e203020616e6420350000604082015260600190565b9081526020019056fea2646970667358221220870a438a300d360222ca780e5a6298e76ea08dcb701c91dbc10f067e8890e40e64736f6c63430008000033",
  "immutableReferences": {},
  "source": "// SPDX-License-Identifier: MIT\r\npragma solidity ^0.8.0;\r\n\r\n/**\r\n * @title Smell Checkmate\r\n * @dev A contract for managing hygiene ratings\r\n */\r\ncontract SmellCheckmate {\r\n    // Mapping to store ratings for each user address\r\n    mapping(address => uint) private ratings;\r\n\r\n    /**\r\n     * @dev Submit a hygiene rating for a user\r\n     * @param _user The address of the user to rate\r\n     * @param _rating The rating to assign (0-5)\r\n     */\r\n    function submitRating(address _user, uint _rating) public {\r\n        require(_rating <= 5, \"Rating must be between 0 and 5\");\r\n        ratings[_user] = _rating;\r\n    }\r\n\r\n    /**\r\n     * @dev Retrieve the hygiene rating of a user\r\n     * @param _user The address of the user to check\r\n     * @return The rating of the user\r\n     */\r\n    function getRating(address _user) public view returns (uint) {\r\n        return ratings[_user];\r\n    }\r\n}",
  "sourcePath": "D:\\project\\contracts\\SmellCheckmate.sol",
  "compiler": {
    "name": "solc",
    "version": "0.8.0+commit.c7dfd78e.Emscripten.clang"
  },
  "schemaVersion": "3.4.16",
  "updatedAt": "2025-02-06T22:46:04.965Z",
  "devdoc": {
    "details": "A contract for managing hygiene ratings",
    "kind": "dev",
    "methods": {
      "getRating(address)": {
        "details": "Retrieve the hygiene rating of a user",
        "params": {
          "_user": "The address of the user to check"
        },
        "returns": {
          "_0": "The rating of the user"
        }
      },
      "submitRating(address,uint256)": {
        "details": "Submit a hygiene rating for a user",
        "params": {
          "_rating": "The rating to assign (0-5)",
          "_user": "The address of the user to rate"
        }
      }
    },
    "title": "Smell Checkmate",
    "version": 1
  },
  "userdoc": {
    "kind": "user",
    "methods": {},
    "version": 1
  }
}